{
  "contractName": "Crud",
  "abi": [
    {
      "inputs": [],
      "name": "nextId",
      "outputs": [
        {
          "internalType": "uint256",
          "name": "",
          "type": "uint256"
        }
      ],
      "stateMutability": "view",
      "type": "function"
    },
    {
      "inputs": [
        {
          "internalType": "uint256",
          "name": "",
          "type": "uint256"
        }
      ],
      "name": "player",
      "outputs": [
        {
          "internalType": "uint256",
          "name": "id",
          "type": "uint256"
        },
        {
          "internalType": "string",
          "name": "name",
          "type": "string"
        }
      ],
      "stateMutability": "view",
      "type": "function"
    },
    {
      "inputs": [
        {
          "internalType": "string",
          "name": "name",
          "type": "string"
        }
      ],
      "name": "create",
      "outputs": [],
      "stateMutability": "nonpayable",
      "type": "function"
    },
    {
      "inputs": [
        {
          "internalType": "uint256",
          "name": "id",
          "type": "uint256"
        }
      ],
      "name": "read",
      "outputs": [
        {
          "internalType": "uint256",
          "name": "",
          "type": "uint256"
        },
        {
          "internalType": "string",
          "name": "",
          "type": "string"
        }
      ],
      "stateMutability": "view",
      "type": "function"
    },
    {
      "inputs": [
        {
          "internalType": "uint256",
          "name": "id",
          "type": "uint256"
        },
        {
          "internalType": "string",
          "name": "_name",
          "type": "string"
        }
      ],
      "name": "upload",
      "outputs": [],
      "stateMutability": "nonpayable",
      "type": "function"
    },
    {
      "inputs": [
        {
          "internalType": "uint256",
          "name": "id",
          "type": "uint256"
        }
      ],
      "name": "destroy",
      "outputs": [],
      "stateMutability": "nonpayable",
      "type": "function"
    }
  ],
  "bytecode": "0x60806040526001805534801561001457600080fd5b50610a7f806100246000396000f3fe608060405234801561001057600080fd5b50600436106100625760003560e01c80634d725e951461006757806361b8ce8c146100835780639d118770146100a15780639e0551c6146100bd578063b6a46b3b146100ee578063ed2e5a971461010a575b600080fd5b610081600480360381019061007c9190610721565b61013b565b005b61008b610187565b604051610098919061078c565b60405180910390f35b6100bb60048036038101906100b691906107a7565b61018d565b005b6100d760048036038101906100d291906107a7565b6101db565b6040516100e592919061085c565b60405180910390f35b6101086004803603810190610103919061088c565b610297565b005b610124600480360381019061011f91906107a7565b61031d565b60405161013292919061085c565b60405180910390f35b60006101468361040f565b9050816000828154811061015d5761015c6108d5565b5b906000526020600020906002020160010190805190602001906101819291906104ae565b50505050565b60015481565b60006101988261040f565b9050600081815481106101ae576101ad6108d5565b5b90600052602060002090600202016000808201600090556001820160006101d59190610534565b50505050565b600081815481106101eb57600080fd5b906000526020600020906002020160009150905080600001549080600101805461021490610933565b80601f016020809104026020016040519081016040528092919081815260200182805461024090610933565b801561028d5780601f106102625761010080835404028352916020019161028d565b820191906000526020600020905b81548152906001019060200180831161027057829003601f168201915b5050505050905082565b6000604051806040016040528060015481526020018381525090806001815401808255809150506001900390600052602060002090600202016000909190919091506000820151816000015560208201518160010190805190602001906102ff9291906104ae565b5050506001600081548092919061031590610994565b919050555050565b60006060600061032c8461040f565b905060008181548110610342576103416108d5565b5b90600052602060002090600202016000015460008281548110610368576103676108d5565b5b906000526020600020906002020160010180805461038590610933565b80601f01602080910402602001604051908101604052809291908181526020018280546103b190610933565b80156103fe5780601f106103d3576101008083540402835291602001916103fe565b820191906000526020600020905b8154815290600101906020018083116103e157829003601f168201915b505050505090509250925050915091565b600080600090505b60008054905081101561046d578260008281548110610439576104386108d5565b5b906000526020600020906002020160000154141561045a57809150506104a9565b808061046590610994565b915050610417565b506040517f08c379a00000000000000000000000000000000000000000000000000000000081526004016104a090610a29565b60405180910390fd5b919050565b8280546104ba90610933565b90600052602060002090601f0160209004810192826104dc5760008555610523565b82601f106104f557805160ff1916838001178555610523565b82800160010185558215610523579182015b82811115610522578251825591602001919060010190610507565b5b5090506105309190610574565b5090565b50805461054090610933565b6000825580601f106105525750610571565b601f0160209004906000526020600020908101906105709190610574565b5b50565b5b8082111561058d576000816000905550600101610575565b5090565b6000604051905090565b600080fd5b600080fd5b6000819050919050565b6105b8816105a5565b81146105c357600080fd5b50565b6000813590506105d5816105af565b92915050565b600080fd5b600080fd5b6000601f19601f8301169050919050565b7f4e487b7100000000000000000000000000000000000000000000000000000000600052604160045260246000fd5b61062e826105e5565b810181811067ffffffffffffffff8211171561064d5761064c6105f6565b5b80604052505050565b6000610660610591565b905061066c8282610625565b919050565b600067ffffffffffffffff82111561068c5761068b6105f6565b5b610695826105e5565b9050602081019050919050565b82818337600083830152505050565b60006106c46106bf84610671565b610656565b9050828152602081018484840111156106e0576106df6105e0565b5b6106eb8482856106a2565b509392505050565b600082601f830112610708576107076105db565b5b81356107188482602086016106b1565b91505092915050565b600080604083850312156107385761073761059b565b5b6000610746858286016105c6565b925050602083013567ffffffffffffffff811115610767576107666105a0565b5b610773858286016106f3565b9150509250929050565b610786816105a5565b82525050565b60006020820190506107a1600083018461077d565b92915050565b6000602082840312156107bd576107bc61059b565b5b60006107cb848285016105c6565b91505092915050565b600081519050919050565b600082825260208201905092915050565b60005b8381101561080e5780820151818401526020810190506107f3565b8381111561081d576000848401525b50505050565b600061082e826107d4565b61083881856107df565b93506108488185602086016107f0565b610851816105e5565b840191505092915050565b6000604082019050610871600083018561077d565b81810360208301526108838184610823565b90509392505050565b6000602082840312156108a2576108a161059b565b5b600082013567ffffffffffffffff8111156108c0576108bf6105a0565b5b6108cc848285016106f3565b91505092915050565b7f4e487b7100000000000000000000000000000000000000000000000000000000600052603260045260246000fd5b7f4e487b7100000000000000000000000000000000000000000000000000000000600052602260045260246000fd5b6000600282049050600182168061094b57607f821691505b6020821081141561095f5761095e610904565b5b50919050565b7f4e487b7100000000000000000000000000000000000000000000000000000000600052601160045260246000fd5b600061099f826105a5565b91507fffffffffffffffffffffffffffffffffffffffffffffffffffffffffffffffff8214156109d2576109d1610965565b5b600182019050919050565b7f506c6179657220646f6573206e6f742065786973740000000000000000000000600082015250565b6000610a136015836107df565b9150610a1e826109dd565b602082019050919050565b60006020820190508181036000830152610a4281610a06565b905091905056fea2646970667358221220cfb63db1162ccadc2f025c0504c9c95b041c2559030c7006c4dd6f99a8331d1664736f6c634300080a0033",
  "immutableReferences": {},
  "source": "pragma solidity >= 0.4.22 < 0.9.0;\r\n\r\ncontract Crud {\r\n  struct Player {\r\n    uint256 id;\r\n    string name;\r\n  }\r\n\r\n  Player[] public player;\r\n  uint256 public nextId = 1;\r\n\r\n  function create(string memory name) public {\r\n    player.push(Player(nextId, name));\r\n    nextId++;\r\n  }\r\n\r\n  function read(uint256 id) public view returns (uint256, string memory) {\r\n    uint256 i = loadId(id);\r\n    return (player[i].id, player[i].name);\r\n  }\r\n\r\n  function upload(uint256 id, string memory _name) public {\r\n    uint256 i = loadId(id);\r\n    player[i].name = _name;\r\n  }\r\n\r\n  function destroy(uint256 id) public {\r\n    uint256 i = loadId(id);\r\n    delete (player[i]);\r\n  }\r\n  \r\n  function loadId(uint256 id) internal view returns (uint256 _id){\r\n    for( uint256 i = 0; i < player.length; i ++){\r\n      if(player[i].id == id){\r\n        return i;\r\n      }\r\n    }\r\n    revert(\"Player does not exist\");\r\n  }\r\n}",
  "sourcePath": "D:\\Desktop\\Blockchain\\MyDevelop\\project2\\contracts\\Crud.sol",
  "compiler": {
    "name": "solc",
    "version": "0.8.10+commit.fc410830.Emscripten.clang"
  },
  "schemaVersion": "3.4.3",
  "updatedAt": "2022-04-12T07:44:08.098Z",
  "devdoc": {
    "kind": "dev",
    "methods": {},
    "version": 1
  },
  "userdoc": {
    "kind": "user",
    "methods": {},
    "version": 1
  }
}